S01C0000616869667472656769737465725F4843543539352E73726563B6
S11300000C943E000C9448000C9448000C94480056
S11300100C9448000C9448000C9448000C9448003C
S11300200C9448000C9448000C9448000C9448002C
S11300300C9448000C9448000C9448000C9448001C
S11300400C9448000C9448000C9448000C9448000C
S11300500C9448000C9448000C9448000C944800FC
S11300600C9448000C9448000C9448000C944800EC
S11300700C9448000C9448000C94480011241FBEB2
S1130080CFEFD0E1DEBFCDBF0E945C000C947A00BC
S11300900C94000084B1806B84B98CB582658CBDEE
S11300A0089595B19E7F95B98EBD0DB407FEFDCF21
S11300B085B1816085B908950E944A0084B1836046
S11300C084B98AEA0E9451002FEF89E698E1215011
S11300D080409040E1F700C0000085E50E94510097
S11300E02FEF89E698E1215080409040E1F700C06D
S10B00F00000E7CFF894FFCFF4
S9030000FC
