:100000000C943E000C9453000C9453000C94530039
:100010000C9453000C9453000C9453000C94530014
:100020000C9453000C9453000C9453000C94530004
:100030000C9453000C9453000C9453000C945300F4
:100040000C9453000C9453000C946F000C945300C8
:100050000C9453000C9453000C9453000C945300D4
:100060000C9453000C9453000C9453000C945300C4
:100070000C9453000C9453000C94530011241FBE95
:10008000CFEFD0E1DEBFCDBF11E0A0E0B1E0EAE507
:10009000F1E002C005900D92A230B107D9F70E949D
:1000A000A2000C94AB000C94000084B58C7F84BD3E
:1000B00085B5877F85BD85B5856085BD85B58D7F17
:1000C00085BDEEE6F0E08081816080830895880F31
:1000D000991F803491050CF0CF9782B908951F9233
:1000E0000F920FB60F9211242F933F934F935F936C
:1000F0006F937F938F939F93AF93BF93EF93FF93F0
:100100008091000181508093000181110AC080918B
:10011000010190E00E946700809301018FE38093CA
:100120000001FF91EF91BF91AF919F918F917F91CE
:100130006F915F914F913F912F910F900FBE0F9054
:100140001F9018950E9455008FEF81B98091010191
:0A01500082B97894FFCFF894FFCF36
:02015A003F075D
:00000001FF
