S00D000054696D65722E7372656316
S11300000C943E000C9450000C9450000C9450003E
S11300100C9450000C9450000C9450000C9450001C
S11300200C9450000C9450000C9450000C9450000C
S11300300C9450000C9450000C9450000C945000FC
S11300400C9450000C9450000C946E000C945000CE
S11300500C9450000C9450000C9450000C945000DC
S11300600C9450000C9450000C9450000C945000CC
S11300700C9450000C9450000C94500011241FBE9A
S1130080CFEFD0E1DEBFCDBF21E0A0E0B1E001C001
S11300901D92A230B207E1F70E9467000C94A800F9
S11300A00C94000014BC85E085BD85BD8FEF87BD31
S11300B0EEE6F0E0808181608083089581E0909194
S11300C00101911180E08093010188B9089587B1FD
S11300D0816087B90E9452007894FFCF1F920F92DB
S11300E00FB60F9211242F933F934F935F936F9307
S11300F07F938F939F93AF93BF93EF93FF939091CD
S113010000019F5F8DE0989F212D1124892F821B70
S11301108695820F8295869587702DE3829F90192C
S1130120112490930001911102C00E945E00FF917E
S1130130EF91BF91AF919F918F917F916F915F915B
S11301404F913F912F910F900FBE0F901F901895D4
S1070150F894FFCF4D
S9030000FC
