S013000055534152545F62617369632E7372656321
S11300000C943E000C9453000C9453000C94530035
S11300100C9453000C9453000C9453000C94530010
S11300200C9453000C9453000C9453000C94530000
S11300300C9453000C9453000C9453000C945300F0
S11300400C9453000C9453000C9453000C945300E0
S11300500C9453000C9453000C9453000C945300D0
S11300600C9453000C9453000C9453000C945300C0
S11300700C9453000C9453000C94530011241FBE91
S1130080CFEFD0E1DEBFCDBF11E0A0E0B1E0E6E10B
S1130090F1E002C005900D92A630B107D9F70E9495
S11300A070000C9489000C9400002FEF24B99093F5
S11300B0C5008093C40088E18093C10086E08093EA
S11300C0C20008959091C00095FFFCCF8093C600B4
S11300D008958091C0008823E4F78091C6000895B4
S11300E087E690E00E9455008FEF87B90E9469006F
S11300F08337E1F708C0FE01E050FF4F80810E9482
S11301006200219602C0C0E0D0E0C530D1059CF366
S1090110EDCFF894FFCFCF
S109011648616C6C6F00EF
S9030000FC
