:100000000C943E000C9450000C9450000C94500042
:100010000C9450000C9450000C9450000C94500020
:100020000C9450000C9450000C9450000C94500010
:100030000C9450000C9450000C9450000C94500000
:100040000C9450000C9450000C9450000C945000F0
:100050000C9450000C9450000C9450000C945000E0
:100060000C9450000C9450000C9450000C945000D0
:100070000C9450000C9450000C94500011241FBE9E
:10008000CFEFD0E1DEBFCDBF21E0A0E0B1E001C005
:100090001D92A230B207E1F70E9479000C949700FC
:1000A0000C94000084B1806B84B98CB580658CBDE4
:1000B0008CB581608CBD089525B12F7E25B99C013A
:1000C0000024220F331F001C220F331F001C232F7C
:1000D000302D2F7020692EBD0DB407FEFDCF880F87
:1000E000880F8EBD0DB407FEFDCF85B1806185B947
:1000F00008950E945200789480910001909101012E
:100100008C3F2FE9920738F080E090E9909301014D
:100110008093000105C00496909301018093000133
:1001200080910001909101010E945C00E5CFF8945C
:02013000FFCFFF
:00000001FF
