:100000000C943E000C9448000C9448000C9448005A
:100010000C9448000C9448000C9448000C94480040
:100020000C9448000C9448000C9448000C94480030
:100030000C9448000C9448000C9448000C94480020
:100040000C9448000C9448000C9448000C94480010
:100050000C9448000C9448000C9448000C94480000
:100060000C9448000C9448000C9448000C944800F0
:100070000C9448000C9448000C94480011241FBEB6
:10008000CFEFD0E1DEBFCDBF0E945E000C948800B0
:100090000C940000EAE7F0E0808180688083808132
:1000A00086608083ECE7F0E08081806280838081DD
:1000B0008064808380818F778083089587B18FEFFC
:1000C00087B98AB1806C8AB90E944A00EAE7F0E0F9
:1000D00080818064808380917A0086FDFCCFEAE78E
:1000E000F0E080818064808380917A0086FDFCCF7F
:1000F00090917800809179009BB988B92FEF81EEBB
:1001000094E0215080409040E1F700C00000E7CF2C
:04011000F894FFCF91
:00000001FF
