S01100004D756C7469706C65782E737265634F
S11300000C943E000C945B000C945B000C945B001D
S11300100C945B000C945B000C945B000C945B00F0
S11300200C945B000C945B000C945B000C945B00E0
S11300300C945B000C945B000C945B000C945B00D0
S11300400C945B000C945B000C945D000C945B00BE
S11300500C945B000C945B000C945B000C945B00B0
S11300600C945B000C945B000C945B000C945B00A0
S11300700C945B000C945B000C945B0011241FBE79
S1130080CFEFD0E1DEBFCDBF11E0A0E0B1E0ECE402
S1130090F1E002C005900D92AA30B107D9F721E032
S11300A0AAE0B1E001C01D92AC30B207E1F70E94B2
S11300B06E000C94A4000C9400001F920F920FB6D3
S11300C00F9211248F9380910B018F5F80930B010A
S11300D08F910F900FBE0F901F9018958FEF81B9DD
S11300E087E087B985B5846085BDEEE6F0E0808160
S11300F081608083789480910B018823E1F31092CE
S11301000B0180910A018F5F80930A01833010F004
S113011010920A0180910A01811102C084E088B919
S113012080910A01813011F482E088B980910A013A
S1130130823011F481E088B9E0910A01F0E0E050E6
S10F0140FF4F808182B9D7CFF894FFCF25
S10D014CFC60DAF266B6BEE0FEF6CF
S9030000FC
