S01300004144435F62617369632E632E7372656357
S11300000C943E000C9450000C9450000C9450003E
S11300100C9450000C9450000C9450000C9450001C
S11300200C9450000C9450000C9450000C9450000C
S11300300C9450000C9470000C9450000C945000DC
S11300400C9450000C9450000C9450000C945000EC
S11300500C9450000C9450000C9450000C945000DC
S11300600C9450000C9450000C9450000C945000CC
S11300700C9450000C9450000C94500011241FBE9A
S1130080CFEFD0E1DEBFCDBF21E0A0E0B1E001C001
S11300901D92A130B207E1F70E9490000C949A00DF
S11300A00C940000EAE7F0E080818068808380811E
S11300B086608083ECE7F0E08081806280838081C9
S11300C08064808308958DE08093810082E0809332
S11300D06F008AE196E090938900809388000895E8
S11300E01F920F920FB60F9211248F93EF93FF93E9
S11300F0EAE7F0E080818064808380917A0086FD65
S1130100FCCF80917900809300018091000188B92F
S1130110FF91EF918F910F900FBE0F901F90189544
S11301200E9452000E9463008FEF87B911B818B87B
S10B01307894FFCFF894FFCF8F
S9030000FC
