S01400004144435F50574D5F667265652E73726563F4
S11300000C943E000C9448000C9448000C94480056
S11300100C9448000C9448000C9448000C9448003C
S11300200C9448000C9448000C9448000C9448002C
S11300300C9448000C9448000C9448000C9448001C
S11300400C9448000C9448000C9448000C9448000C
S11300500C9448000C9448000C9448000C944800FC
S11300600C9478000C9448000C9448000C944800BC
S11300700C9448000C9448000C94480011241FBEB2
S1130080CFEFD0E1DEBFCDBF0E9487000C948F007C
S11300900C940000EAE7F0E080818068808380812E
S11300A08064808380818860808380818160808394
S11300B0ACE7B0E08C9180628C938C9180648C93DB
S11300C0808180628083089584B5816084BD84B515
S11300D0826084BD85B585BD85B5826085BD85B5E5
S11300E085BD84B5806884BD82E080936E000895E8
S11300F01F920F920FB60F9211248F938091790063
S113010087BD8F910F900FBE0F901F9018958FEFA2
S113011084B90E944A000E9464007894FFCFF89446
S1050120FFCF0B
S9030000FC
