S01400004E6F726D616C666F726D656E2E7372656320
S11300000C943E000C9448000C9448000C94480056
S11300100C9448000C9448000C9448000C9448003C
S11300200C9448000C9448000C9448000C9448002C
S11300300C9448000C9448000C9448000C9448001C
S11300400C9448000C9448000C9448000C9448000C
S11300500C9448000C9448000C9448000C944800FC
S11300600C9448000C9448000C9448000C944800EC
S11300700C9448000C9448000C94480011241FBEB2
S1130080CFEFD0E1DEBFCDBF0E944A000C945C00EC
S11300900C94000087E081B980E082B98F5F8830DA
S11300A008F080E02FE33DE093E0215030409040A1
S10F00B0E1F700C00000F1CFF894FFCF8E
S9030000FC
