:100000000C943E000C9450000C9450000C94500042
:100010000C9450000C9450000C9450000C94500020
:100020000C9450000C9450000C9450000C94500010
:100030000C9450000C9450000C9450000C94500000
:100040000C9464000C9450000C9450000C945000DC
:100050000C9450000C9450000C9450000C945000E0
:100060000C9450000C9450000C9450000C945000D0
:100070000C9450000C9450000C94500011241FBE9E
:10008000CFEFD0E1DEBFCDBF21E0A0E0B1E001C005
:100090001D92A130B207E1F70E948B000C949100F1
:1000A0000C94000084B5816084BD84B5826084BDF9
:1000B00085B5826085BD84B5806884BDEEE6F0E0DC
:1000C00080818260808308951F920F920FB60F92F5
:1000D00011242F938F939F93809100018F5F8093C2
:1000E00000018E3181F487B58F5F87BD27B581E030
:1000F0002E3F08F480E08195982F990F822F891B5D
:1001000087BD109200019F918F912F910F900FBE8C
:100110000F901F9018958FEF84B90E945200789429
:06012000FFCFF894FFCFB1
:00000001FF
