:100000000C943E000C9448000C9448000C9448005A
:100010000C9448000C9448000C9448000C94480040
:100020000C9448000C9448000C9448000C94480030
:100030000C9448000C9448000C9448000C94480020
:100040000C9467000C9448000C9448000C944800F1
:100050000C9448000C9448000C9448000C94480000
:100060000C9448000C9448000C9448000C944800F0
:100070000C9448000C9448000C94480011241FBEB6
:10008000CFEFD0E1DEBFCDBF0E945D000C947900C0
:100090000C94000082E084BD84B5867F84BD85B564
:1000A000856085BD85B58D7F85BD8DE587BDEEE617
:1000B000F0E0808182608083089584B1806184B99A
:1000C00085B18F7E85B90E944A007894FFCF1F9238
:1000D0000F920FB60F9211248F939F9395B180E1E9
:1000E000892785B99F918F910F900FBE0F901F9018
:0600F0001895F894FFCF03
:00000001FF
