:100000000C943E000C945B000C945B000C945B0021
:100010000C945B000C945B000C945B000C945B00F4
:100020000C945B000C945B000C945B000C945B00E4
:100030000C945B000C945B000C945B000C945B00D4
:100040000C945B000C945B000C945D000C945B00C2
:100050000C945B000C945B000C945B000C945B00B4
:100060000C945B000C945B000C945B000C945B00A4
:100070000C945B000C945B000C945B0011241FBE7D
:10008000CFEFD0E1DEBFCDBF11E0A0E0B1E0EAE20A
:10009000F1E002C005900D92AA30B107D9F721E036
:1000A000AAE0B1E001C01D92AC30B207E1F70E94B6
:1000B0006E000C9493000C9400001F920F920FB6E8
:1000C0000F9211248F9380910B018F5F80930B010E
:1000D0008F910F900FBE0F901F90189580EF84B9ED
:1000E0008FEF81B985B5856085BDEEE6F0E0808152
:1000F00081608083789483B180910B018431D8F33F
:1001000010920B0180910A018F5F80930A018A305F
:1001100010F010920A01E0910A01F0E0E050FF4F68
:0A012000808182B9E8CFF894FFCF88
:0A012A00FC60DAF266B6BEE0FEF6F5
:00000001FF
