:100000000C943E000C9453000C9453000C94530039
:100010000C9453000C9453000C9453000C94530014
:100020000C9453000C9453000C9453000C94530004
:100030000C9453000C9453000C9453000C945300F4
:100040000C9453000C9453000C9453000C945300E4
:100050000C9453000C9453000C9453000C945300D4
:100060000C9453000C9453000C9453000C945300C4
:100070000C9453000C9453000C94530011241FBE95
:10008000CFEFD0E1DEBFCDBF11E0A0E0B1E0EEEBFD
:10009000F3E002C005900D92A430B107D9F70E9499
:1000A00094000C94DD010C9400002FEF24B9909380
:1000B000C5008093C40088E18093C10086E28093EC
:1000C000C20008952FEF24B99093CD008093CC0007
:1000D00088E18093C90086E28093CA0008959091D8
:1000E000C00095FFFCCF8093C60008959091C80092
:1000F00095FFFCCF8093CE0008958091C0008823A7
:10010000E4F78091C60008950E946A016AE170E0F8
:100110000E94F6008F5B08950E946A016AE170E018
:100120000E94F6008F590895CF93DF9300D000D03E
:1001300000D0CDB7DEB787E690E00E94550087E695
:1001400090E00E9462008FEF87B98AE290E00E94FF
:100150006F010E947D008736E1F728C083E0E81632
:10016000F104ACF482E0C816D10421F00E946A01C7
:1001700080FD0DC00E948400E1E0F0E0EC0FFD1F67
:10018000E00FF11F80838FEFE81AF80A0CC00E947D
:100190008C00E1E0F0E0EC0FFD1FE00FF11F808329
:1001A0008FEFC81AD80A0F5F1F4F06C000E010E09B
:1001B000C12CD12CE12CF12C053011057CF21E82D2
:1001C00000E010E00FC0E1E0F0E0EC0FFD1FE00FF9
:1001D000F11FF0808F2D0E946F008F2D0E947600FE
:1001E0000F5F1F4F0530110574F3B3CF97FB072E38
:1001F00016F4009407D077FD09D00E940A0107FC8D
:1002000005D03EF4909581959F4F08957095619526
:100210007F4F0895AA1BBB1B51E107C0AA1FBB1F3C
:10022000A617B70710F0A61BB70B881F991F5A9582
:10023000A9F780959095BC01CD0108958F929F926A
:10024000AF92BF92CF92DF92EF92FF92CF93DF9364
:10025000EC01688179818A819B8161157105810535
:10026000910521F464E279ED8BE597E02DE133EF20
:1002700041E050E00E947A0149015A019B01AC0122
:10028000A7EAB1E40E9499016B017C01ACEEB4EFE6
:10029000A50194010E94A701DC01CB018C0D9D1DDD
:1002A000AE1DBF1DB7FF03C00197A109B0488883E9
:1002B0009983AA83BB839F77DF91CF91FF90EF90C3
:1002C000DF90CF90BF90AF909F908F9008950E9445
:1002D0001E01089580E091E00E941E010895A0E0B3
:1002E000B0E08093000190930101A0930201B093CC
:1002F00003010895052E97FB1EF400940E949101BE
:1003000057FD07D00E94AC0107FC03D04EF40C94BB
:10031000910150954095309521953F4F4F4F5F4F3C
:10032000089590958095709561957F4F8F4F9F4F61
:1003300008950E94CE01A59F900DB49F900DA49F9B
:10034000800D911D11240895B7FF0C9499010E940E
:100350009901821B930B0895A1E21A2EAA1BBB1BC5
:10036000FD010DC0AA1FBB1FEE1FFF1FA217B30781
:10037000E407F50720F0A21BB30BE40BF50B661F97
:10038000771F881F991F1A9469F76095709580955B
:1003900090959B01AC01BD01CF010895A29FB001D2
:1003A000B39FC001A39F700D811D1124911DB29FA9
:0E03B000700D811D1124911D0895F894FFCF4A
:0403BE00010000003A
:00000001FF
